:020000040800F2
:10000000180B00200501000831170008D915000859
:100010002D170008C101000861220008000000003F
:10002000000000000000000000000000431E000867
:10003000C501000800000000451D0008451E00081D
:100040001F0100081F0100081F0100081F01000810
:100050001F0100081F0100081F0100081F01000800
:100060001F0100081F0100081F0100081F010008F0
:100070001F0100081F0100081F0100081F010008E0
:100080001F0100081F0100081F0100081F010008D0
:100090001F0100081F0100081F0100081F010008C0
:1000A0001F0100081F0100081F0100081F010008B0
:1000B0001F0100081F0100081F0100081F010008A0
:1000C0001F0100081F0100081F0100081F01000890
:1000D0001F010008512200081F0100081F0100082D
:1000E0001F0100081F0100081F010008DFF810D0E1
:1000F00000F054F80048004779240008AFF300806E
:10010000180B00200648804706480047FEE7FEE738
:10011000FEE7FEE7FEE7FEE7FEE7FEE7FEE7FEE7B7
:10012000CD1E0008ED00000840EA01039B0703D044
:1001300009E008C9121F08C0042AFAD203E011F826
:10014000013B00F8013B521EF9D27047D2B201E0E8
:1001500000F8012B491EFBD270470022F6E710B5CC
:1001600013460A4604461946FFF7F0FF204610BD25
:1001700030B50B46014600202022012409E021FA77
:1001800002F59D4205D303FA02F5491B04FA02F574
:100190002844151EA2F10102F1DC30BD064C074DCA
:1001A00006E0E06840F0010394E807009847103447
:1001B000AC42F6D3FFF79EFFD0260008F0260008D9
:1001C00000BFFEE77047000070B50446002594F8B4
:1001D0002100022803D00420A063012548E0206804
:1001E000006820F00E00216808602068006820F098
:1001F0000100216808601F492068884201D1012060
:1002000026E01C4914312068884201D110201FE0EB
:10021000184928312068884201D1801518E0154915
:100220003C312068884201D1801411E011495031DD
:100230002068884202D14FF4803009E00D496431D2
:100240002068884202D14FF4801001E04FF08070A6
:10025000084908394860012084F8210000BF0020C7
:1002600084F8200000BF606B10B12046616B8847A6
:10027000284670BD0800024070B5044600F0A4F99D
:1002800006462546681C10B104480078054400BFA6
:1002900000F09AF9801BA842FAD370BD1C00002020
:1002A0002DE9F84703460024002000258446002756
:1002B00000226EE14FF0010808FA02F4D1F8008044
:1002C00008EA0400A0427DD1DFF8D0A2D1F8048072
:1002D000A8EB0A09D0453AD014DCB8F1030F50D08E
:1002E00009DCB8F1000F31D0B8F1010F1CD0B8F122
:1002F000020F49D120E0B8F1110F18D0B8F1120F58
:1003000042D11EE0B9F5881F25D006DCB9F5803F43
:1003100020D0B9F5801F37D11AE0B9F5001F18D0E9
:10032000B9F5041F30D117E0D1F80CC02DE0D1F899
:100330000C8008F1040C28E0D1F80C8008F1080CBE
:1003400023E0D1F80C8008F10C0C1EE000BF00BFC8
:1003500000BF00BF00BF00BFD1F80880B8F1000F98
:1003600002D14FF0040C0BE0D1F80880B8F1010F76
:1003700003D14FF0080C1C6102E04FF0080C5C61E7
:1003800003E04FF0000C00E000BF00BFFF2801D8E1
:10039000984601E003F104084646FF2802D84FEAD8
:1003A000820803E0A2F108084FEA88084746D6F819
:1003B00000804FF00F0909FA07F928EA09080CFA3A
:1003C00007F900E088E048EA0908C6F80080D1F89B
:1003D000048008F08058B8F1805F7DD100BFDFF85D
:1003E000C081D8F8188048F00108DFF8B491C9F846
:1003F0001880C846D8F8188008F00108CDF80080A9
:1004000000BF00BF4FEAB9384FEA920958F82950A7
:100410004FEA82784FEA18794FF00F0808FA09F886
:1004200025EA0805DFF87C81434502D14FF000083A
:1004300016E0DFF87481434502D14FF001080FE068
:10044000DFF86881434502D14FF0020808E0DFF889
:100450006081434502D14FF0030801E04FF00408EA
:100460004FEA82794FEA197908FA09F848EA05054E
:10047000DFF840814FEA920948F82950D1F804800A
:1004800008F48038B8F5803F0AD1DFF82C81D8F81D
:10049000008048EA0008DFF82091C9F8008009E0F0
:1004A000DFF81481D8F8008028EA0008DFF8089106
:1004B000C9F80080D1F8048008F40038B8F5003F8E
:1004C00010D1DFF8F48008F10408D8F8008048EA79
:1004D0000008DFF8E49000E05AE009F10409C9F8E7
:1004E00000800DE0DFF8D08008F10408D8F8008023
:1004F00028EA0008DFF8C09009F10409C9F8008073
:10050000D1F8048008F48018B8F5801F0ED1DFF808
:10051000A88008F10808D8F8008048EA0008DFF849
:10052000989009F10809C9F800800DE0DFF888808B
:1005300008F10808D8F8008028EA0008DFF8789069
:1005400009F10809C9F80080D1F8048008F40018FE
:10055000B8F5001F0ED1DFF8608008F10C08D8F85C
:10056000008048EA0008DFF8509009F10C09C9F84A
:1005700000800DE0DFF8408008F10C08D8F800801A
:1005800028EA0008DFF8309009F10C09C9F800806A
:10059000521C102AFFF48EAEBDE8F887000011103F
:1005A0000010024000080140000C01400010014012
:1005B0000014014008000140000401400AB101613B
:1005C00001E00B04036170470148006870470000B8
:1005D00014000020034800680349097808440149D1
:1005E00008607047140000201C00002010B5084867
:1005F000006840F0100006490860032000F0D0F8C1
:10060000002000F007F800F02BF8002010BD0000DB
:100610000020024070B504460E4800784FF47A710D
:10062000B1FBF0F00C490968B1FBF0F5284600F089
:1006300098FE08B1012070BD102C07D2002221467F
:10064000501E00F06EF80548046001E00120F2E75A
:100650000020F0E71C0000202000002018000020EF
:1006600008B500BF2648806940F001002449886130
:100670000846806900F00100009000BF00BF00BF85
:100680000846C06940F08050C8610846C06900F063
:100690008050009000BF00BF032000F081F80022CE
:1006A00011466FF00B0000F03CF8002211466FF08D
:1006B0000A0000F036F8002211466FF0090000F041
:1006C00030F800221146501F00F02BF8002211468E
:1006D000101F00F026F800221146901E00F021F8AD
:1006E00000221146501E00F01CF800BF0549486862
:1006F00020F0E06040F00070486000BF08BD0000DE
:10070000001002400000014000BF00F01F02012164
:1007100091404209920002F1E022C2F8001100BFAC
:1007200070472DE9F05F80460D461646002701F020
:10073000EDFA074639462A46334601F00700C0F174
:10074000070ABAF1040F02D94FF0040A01E0C0F120
:10075000070AD14600F1040ABAF1070F02D24FF09E
:10076000000A01E0A0F1030AD4464FF0010A0AFA98
:1007700009FAAAF1010A0AEA020A0AFA0CFA4FF087
:10078000010B0BFA0CFBABF1010B0BEA030B4AEA72
:100790000B042146404601F0C1FABDE8F09F00007D
:1007A00000BF00F00702064B19684FF6FF0319401F
:1007B000044B0B4343EA0221014B196000BF704711
:1007C0000CED00E00000FA0570B504460D46002669
:1007D0006248006800F00700A8420ED25F48006837
:1007E00020F0070028435D4908600846006800F0D3
:1007F0000700A84201D0012070BD207800F002005F
:10080000022807D15648406820F0F000A16808434C
:1008100053494860207800F0010000285DD06068EE
:10082000012806D14E48006800F4003090B901203C
:10083000E2E76068022806D14948006800F00070CD
:1008400040B90120D8E74648006800F0020008B926
:100850000120D1E74248406820F003006168084366
:100860003F494860FFF7B0FE06466068012810D196
:1008700008E0FFF7A9FE801B41F28831884201D9C8
:100880000320B9E73648406800F00C000428F0D196
:1008900023E06068022810D108E0FFF795FE801B76
:1008A00041F28831884201D90320A5E72C484068ED
:1008B00000F00C000828F0D10FE008E0FFF784FEFC
:1008C000801B41F28831884201D9032094E72448F3
:1008D000406800F00C000028F0D12048006800F0CB
:1008E0000700A8420ED91D48006820F007002843E1
:1008F0001A4908600846006800F00700A84201D0C5
:10090000012079E7207800F00400042807D114487A
:10091000406820F4E060E1680843114948602078AD
:1009200000F00800082808D10D48406820F4605005
:10093000216940EAC1000A49486000F03DF80849D1
:100940004968C1F30311074A515CC8400649086071
:100950000020FFF75FFE00204EE70000002002406D
:1009600000100240B826000820000020014800685E
:10097000704700002000002000B5FFF7F7FF044992
:100980004968C1F30221034A515CC84000BD000020
:1009900000100240C826000800B5FFF7E7FF044931
:1009A0004968C1F3C221034A515CC84000BD000040
:1009B00000100240C8260008F0B585B00FF26C0C9C
:1009C0009CE8E01001A8A0E8E0101CA52D680095A7
:1009D00000210022002300240020194D696801F045
:1009E0000C05F5B1042D02D0082D19D101E01548F0
:1009F00019E001ADC1F38346AC5D01F4803555B11A
:100A00000F4D6D68C5F340451DF805200D4D65433C
:100A1000B5FBF2F302E00C4D04FB05F3184602E0CF
:100A200000BF084800BF00BF05B0F0BD02030405C9
:100A3000060708090A0B0C0D0E0F1010010200002A
:100A40000010024000127A0000093D00F8B504468B
:100A50000025207800F00100002878D0F848406890
:100A600000F00C0004280CD0F548406800F00C00A1
:100A7000082811D1F248406800F48030B0F5803F7A
:100A80000AD1EF48006800F4003000285FD06068A9
:100A900000285CD10120F8BD00BF6068B0F5803F40
:100AA00006D1E748006840F48030E549086028E056
:100AB000606858B9E248006820F48030E049086076
:100AC0000846006820F4802008601AE06068B0F5ED
:100AD000A02F0BD1DA48006840F48020D849086084
:100AE0000846006840F4803008600AE0D448006896
:100AF00020F48030D24908600846006820F4802045
:100B0000086000BF606888B1FFF75EFD054606E03B
:100B1000FFF75AFD401B642801D90320BBE7C848F2
:100B2000006800F400300028F2D010E0FFF74CFD20
:100B3000054606E0FFF748FD401B642801D9032065
:100B4000A9E7BF48006800F400300028F2D12078FF
:100B500000F00200022857D1B948406800F00C00AC
:100B600050B1B748406800F00C00082818D1B448CC
:100B7000406800F4803098B9B148006800F0020085
:100B800020B12069012801D0012084E7AC48006829
:100B900020F0F800616940EAC100A949086033E02B
:100BA0002069E8B10120A7490860FFF70DFD05465F
:100BB00006E0FFF709FD401B022801D903206AE780
:100BC0009F48006800F002000028F2D09C480068AE
:100BD00020F0F800616940EAC1009949086013E01B
:100BE000002098490860FFF7EFFC054606E0FFF794
:100BF000EBFC401B022801D903204CE79048006819
:100C000000F002000028F2D1207800F00800082847
:100C10002DD1A069B8B101208B490860FFF7D4FC41
:100C2000054606E0FFF7D0FC401B022801D903204F
:100C300031E78348406A00F002000028F2D001202A
:100C400001F082F813E000207F490860FFF7BCFC48
:100C5000054606E0FFF7B8FC401B022801D9032037
:100C600019E77748406A00F002000028F2D12078A6
:100C700000F00400042873D100267148C06900F018
:100C8000805070B900BF6E48C06940F080506C4918
:100C9000C8610846C06900F08050009000BF00BFE6
:100CA00001266A48006800F48070B0B9674800689F
:100CB00040F4807065490860FFF786FC054606E051
:100CC000FFF782FC401B642801D90320E3E65F485C
:100CD000006800F480700028F2D000BFE0680128AE
:100CE00006D15748006A40F001005549086227E0E4
:100CF000E06858B95248006A20F001005049086283
:100D00000846006A20F00400086219E0E06805283F
:100D10000BD14B48006A40F004004949086208467C
:100D2000006A40F0010008620AE04548006A20F0CD
:100D30000100434908620846006A20F00400086286
:100D400000BFE068A0B1FFF73FFC054609E0FFF7F0
:100D50003BFC401B41F28831884202D903209AE6CD
:100D600022E03748006A00F002000028EFD012E0CD
:100D7000FFF72AFC054608E0FFF726FC401B41F27E
:100D80008831884201D9032085E62D48006A00F0A9
:100D900002000028F0D1012E05D12948C06920F0B9
:100DA00080502749C86100BFE069C8B32448406843
:100DB00000F00C00082860D0E069022848D100202B
:100DC00020490866FFF700FC054606E0FFF7FCFB3C
:100DD000401B022801D903205DE61948006800F095
:100DE00000700028F2D1206AB0F5803F07D1144886
:100DF000406820F40030A168084311494860D4E9F4
:100E0000080108430E49496821F4741108430C494C
:100E1000486001200B490866FFF7D6FB054607E04E
:100E20002DE0FFF7D1FB401B022801D9032032E659
:100E30000348006800F000700028F2D01FE00000B6
:100E40000010024000004242800442420070004014
:100E500000200C490866FFF7B7FB054606E0FFF7E0
:100E6000B3FB401B022801D9032014E606480068A2
:100E700000F000700028F2D101E001200BE6002014
:100E800009E60000000042420010024010B504468E
:100E90000CB9012010BD0021A16294F8510010B9D5
:100EA000204600F037F8022084F8510020680068DE
:100EB00020F0400021680860D4E901010843E1689E
:100EC00008432169084361690843218B01F40071DB
:100ED0000843E1690843216A0843A16A084321687D
:100EE00008600421A06901EA1040616A0843216892
:100EF00048602168E06A08612068C06920F40060E9
:100F00002168C86100206065012084F8510000203C
:100F1000C0E7000010B586B0044613492068884237
:100F200020D100BF1148806940F480500F4988618A
:100F30000846806900F48050019000BF00BFA020E7
:100F40000290022003900320059002A90848FFF7B1
:100F5000A7F94020029000200390049002A90448C1
:100F6000FFF79EF906B010BD0030014000100240AE
:100F7000000801402DE9F84304460D4617461E4679
:100F80004FF00008C14600BF94F85000012802D17C
:100F90000220BDE8F883012084F8500000BFFFF76D
:100FA00013FB804694F85100012802D04FF002094B
:100FB000A9E005B117B94FF00109A4E0032084F8B6
:100FC0005100002060652563A786E786A063A0879F
:100FD000E08760642064A068B0F5004F05D1206808
:100FE000006840F48040216808602068006800F0D4
:100FF0004000402805D02068006840F0400021688B
:101000000860E068B0F5006F2AD1606810B1E08E2A
:10101000012806D128882168C860AD1CE08E401EDA
:10102000E08619E02068806800F00200022807D1FD
:1010300028882168C860AD1CE08E401EE0860BE069
:101040003EB1701C40B1FFF7BFFAA0EB0800B04200
:1010500002D34FF0030956E0E08E0028E2D129E0E8
:10106000606810B1E08E012806D1287821680873E5
:101070006D1CE08E401EE08619E02068806800F05C
:101080000200022807D12878216808736D1CE08EC1
:10109000401EE0860BE03EB1701C40B1FFF794FAB1
:1010A000A0EB0800B04202D34FF003092BE0E08E22
:1010B0000028E2D13346012202212046CDF80080EB
:1010C00000F06AFE10B14FF003091CE042463146C1
:1010D000204600F04DFE20B14FF001092020606550
:1010E00011E0A06850B900BF002000902068C068DF
:1010F000009020688068009000BF00BF606D08B15C
:101100004FF0010900BF012084F8510000BF00200A
:1011100084F8500000BF48463BE72DE9FE4F0446E7
:101120000D4616461F46DDF830804FF0000A0020BD
:10113000029081464FF0010B019000BF94F85000DF
:10114000012802D10220BDE8FE8F012084F8500062
:1011500000BFFFF739FA814694F851A06068029009
:10116000BAF1010F0BD00298B0F5827F04D1A068CC
:1011700010B9BAF1040F02D002200190D2E00DB1F3
:1011800006B117B901200190CCE094F85100012874
:1011900002D1052084F8510000206065A663E7872E
:1011A000A7872563E786A7862064606420680068B7
:1011B00000F04000402805D02068006840F0400062
:1011C00021680860E068B0F5006F43D1606810B135
:1011D000E08E012806D128882168C860AD1CE08E09
:1011E000401EE0862FE0BBF1000F10D0E08E70B102
:1011F0002068806800F00200022808D12888216851
:10120000C860AD1CE08E401EE0864FF0000BE08F02
:1012100068B12068806800F0010040B12068C068B3
:101220003080B61CE08F401EE0874FF0010B08F1C4
:10123000010040B1FFF7C8F9A0EB0900404502D317
:10124000032001906EE0E08E0028CCD1E08F0028D2
:10125000C9D142E0606810B1E08E012806D128783B
:10126000216808736D1CE08E401EE0862FE0BBF104
:10127000000F10D0E08E70B12068806800F002008E
:10128000022808D115F8010B21680873E08E401E72
:10129000E0864FF0000BE08F68B12068806800F0B6
:1012A000010040B12068C06806F8010BE08F401EC5
:1012B000E0874FF0010B08F1010040B1FFF784F91E
:1012C000A0EB0900404502D3032001902AE0E08E04
:1012D0000028CCD1E08F0028C9D143460122022149
:1012E0002046CDF8009000F057FD10B1032001908A
:1012F00018E04A464146204600F03AFD20B1012060
:101300000190202060650DE0A06850B900BF00206A
:1013100000902068C068009020688068009000BF3E
:1013200000BF00BF012084F8510000BF002084F8F6
:10133000500000BF019806E7042808D14FF0E021D3
:10134000096941F004014FF0E022116107E04FF01C
:10135000E021096921F004014FF0E022116170479A
:10136000704770B504462546681EB0F1807F01D3F2
:1013700001200FE0681E4FF0E02148610F214FF07F
:10138000FF3000F0CBFC00204FF0E0218861072007
:101390000861002070BD10B5FFF7E2FF10BD704777
:1013A0002DE9F0470446206805682068C668206873
:1013B00047694FF00008C14605F00F08B8F1000F6B
:1013C0000AD105F0200038B106F0200020B12046F7
:1013D00000F0D2FDBDE8F087B8F1000F6DD007F046
:1013E000010018B906F49070002866D005F00100DD
:1013F00030B106F4807018B1E06B40F00100E0639A
:1014000005F0040030B107F0010018B1E06B40F0C6
:101410000200E06305F0020030B107F0010018B1EE
:10142000E06B40F00400E06305F0080030B107F025
:10143000010018B1E06B40F00800E063E06B68B3B6
:1014400005F0200028B106F0200010B1204600F081
:1014500093FD20684069C0F38019E06B00F008003C
:1014600010B9B9F1000F22D0204600F065FD2068C8
:10147000406900F04000B0B12068406920F04000B1
:1014800021684861606B50B11748616B4863606BBD
:10149000FEF79AFE10B1606B416B88470CE0204666
:1014A000FFF77DFF08E02046FFF779FF04E02046C4
:1014B000FFF775FF0020E0638CE705F0800030B196
:1014C00006F0800018B1204600F08EFE82E705F09D
:1014D000400030B106F0400018B1204600F03CFD5D
:1014E00078E700BF76E70000251F000810B5044626
:1014F0000CB9012010BDA06900B100E000BF94F854
:10150000390028B9002084F83800204600F028F877
:10151000242084F839002068C06820F40050216835
:10152000C860204600F07CFD2068006920F49040EF
:10153000216808612068406920F02A00216848611C
:101540002068C06840F400502168C8600020E06353
:10155000202084F8390084F83A000020CAE700000F
:1015600010B586B0044618492068884229D100BFCA
:101570001648806940F480401449886108468069B3
:1015800000F48040019000BF00BF48150290022087
:1015900003900320059002A90D48FEF781FE4FF449
:1015A0008060029000200390049002A90848FEF792
:1015B00077FE002211462520FFF7B3F82520FFF71C
:1015C000A3F806B010BD0000003801400010024032
:1015D000000801407047704700BFFEE700B585B0C6
:1015E00000BF2648806940F0100024498861084601
:1015F000806900F01000009000BF00BF00BF0846E7
:10160000806940F0200088610846806900F0200071
:10161000009000BF00BF00BF0846806940F0040092
:1016200088610846806900F00400009000BF00BF98
:1016300000224FF400511248FEF7C0FF002218218B
:101640001048FEF7BBFF4FF40050019001200290BC
:10165000002003900220049001A90948FEF720FE13
:101660001820019001200290002003900220049095
:1016700001A90448FEF714FE05B000BD00100240A9
:10168000001001400008014010B50F480F490860E4
:101690004FF48270486000210C488160C160016194
:1016A00041614FF4007181610021C16101624162B9
:1016B00081620A21C162FFF7E9FB18B1452104A04C
:1016C00000F0D0FD10BD0000003001407C00002083
:1016D0002E2E2F5372632F7370692E63000000004B
:1016E00010B50C480C4908604FF4E1304860002107
:1016F00009488160C16001610C2141610021816163
:10170000C161FFF7F3FE18B1422104A000F0AAFD69
:1017100010BD000000380140D40000202E2E2F53B1
:1017200072632F75736172742E63000000BFFEE751
:10173000704770B5044600F067F8054605F04006AE
:1017400014B105F00E0020704021072000F09EFA31
:1017500005F0200018B12021072000F097FA30464C
:1017600070BD000010B5034A918810680122FEF791
:1017700025FF10BD2C00002010B5034A9188106889
:101780000022FEF71BFF10BD2C00002010B5034AFD
:10179000918990680122FEF711FF10BD2C000020F6
:1017A00010B5034A918990680022FEF707FF10BD2B
:1017B0002C00002010B57021072000F067FA10BD42
:1017C00008B5FFF7EDFFE2200090054964230122F0
:1017D00048686946FFF7CEFBFFF7D8FF08BD000059
:1017E0000000002008B5FFF7DBFFE120009005496D
:1017F0006423012248686946FFF7BCFBFFF7C6FF78
:1018000008BD0000000000200EB5FFF7C9FFFF2053
:101810000190642006490090012302AA486801A9AA
:10182000FFF77BFCFFF7B2FF9DF808000EBD00003C
:10183000000000200FB470B505460C461646302255
:1018400007A93748FEF770FC002003E00021354A65
:101850001154401C0528F9DB0520FEF70DFD202C56
:1018600000DD20240DB9012000E000202E49487041
:1018700008460470032088700120C870084646603E
:1018800000F058F94F21042000F000FA284600F03B
:1018900005F925480178112000F0F8F9224801786F
:1018A000122000F0F3F920480178132000F0EEF93F
:1018B0001D480178142000F0E9F91B480178152033
:1018C00000F0E4F918480178162000F0DFF9164A14
:1018D0009178D07800F00AF90821002000F0D6F9BC
:1018E0003F21012000F0D2F93F21022000F0CEF983
:1018F0004F21042000F0CAF900211C2000F0C6F995
:10190000022000F0DDF8FFF76DFFFFF759FFFFF74A
:1019100051FF00F02DF8012070BC5DF814FB0000B1
:101920002C000020080000200000002070B50446B4
:101930000D463CB9002003E0295C0C4A1154401CC0
:101940000528F9DB062C0FDA022C07DA04F10A016C
:10195000C8B20522294600F0B1F905E0297904F161
:101960000A02D0B200F092F970BD00000800002019
:1019700010B5FFF701FFFFF723FFFFF71BFF0B2158
:10198000002000F083F9FFF7EDFE10BD2DE9B8410E
:1019900007461C48007800F10108404600F056FE5A
:1019A000044661202070002003E00022411C6254A4
:1019B000C8B2144909788142F7DCFFF7F1FE6420D0
:1019C0001049009009784B1C0E4932464868214660
:1019D000FFF7A3FBFFF7DAFE4021072000F056F9DE
:1019E00008480278711C3846FEF79EFB172000F06D
:1019F0000BF800F00105204600F016FD2846BDE872
:101A0000B8810000000000203EB504468DF8084073
:101A1000FF208DF8090000200190FFF7C1FE64202F
:101A200006490090022301AA486802A9FFF775FB46
:101A3000FFF7ACFE9DF805003EBD00000000002051
:101A400070B504460D46062C13DA3F20FFF7DCFF85
:101A500006461DB90120A040864305E0012D03D1B3
:101A60000120A0403043C6B23146012000F00EF9FB
:101A700012E0FF2C10D13F20FFF7C6FF064615B934
:101A800026F03F0603E0012D01D146F03F06314626
:101A9000012000F0FBF800BF70BD000010B5044647
:101AA0007D2C09DC05484078A04205D003484470ED
:101AB0002146052000F0EAF810BD000000000020DB
:101AC00070B505460020FFF79FFF044615B924F0C6
:101AD0000C0406E0012D02D144F0080401E044F0BA
:101AE0000C042146002000F0D1F870BD70B5064608
:101AF0000D4600240E48C670857016B944F00804DF
:101B000003E0022E01D144F02004032D02D144F061
:101B1000060408E0022D02D144F0040403E0012D84
:101B200001D144F002042146062000F0AFF870BD58
:101B3000000000201CB50821002000F0A7F83F217C
:101B4000012000F0A3F80321022000F09FF80321F8
:101B5000084600F09BF80321042000F097F80221CA
:101B6000052000F093F80E21062000F08FF80E21DA
:101B7000072000F08BF80021082000F087F80021F2
:101B8000092000F083F8E7208DF800008DF80100AF
:101B90008DF802008DF803008DF8040005226946D7
:101BA0000A2000F08BF8C2208DF800008DF80100AB
:101BB0008DF802008DF803008DF8040005226946B7
:101BC0000B2000F07BF8C3210C2000F05FF8C4214B
:101BD0000D2000F05BF8C5210E2000F057F8C6215B
:101BE0000F2000F053F8E7208DF800008DF8010079
:101BF0008DF802008DF803008DF804000522694677
:101C0000102000F05BF80021112000F03FF80021C7
:101C1000122000F03BF80021132000F037F80021DB
:101C2000142000F033F80021152000F02FF80021D7
:101C3000162000F02BF81721084600F027F80021A5
:101C40001C2000F023F800211D2000F01FF81CBD0F
:101C500010B50020FFF7D8FE40F003042146002015
:101C600000F014F8FFF7A6FDFFF7AAFDFFF7BAFD95
:101C7000FFF778FD0120FEF7FFFA10BD10B509202F
:101C8000FFF7C2FE00F0010010BD000038B50446A9
:101C90000D4644F020008DF800008DF80150FFF74C
:101CA0007FFD05496423022248686946FFF762F90F
:101CB000FFF76CFD38BD0000000000202DE9F04169
:101CC00006460F46144604F10108404600F0BEFCEB
:101CD000054646F020002870002003E03A5C411CD5
:101CE0006A54C8B2A042F9DBFFF75AFD06496423E3
:101CF000621C48682946FFF73DF9FFF747FD284673
:101D000000F092FBBDE8F08100000020024800686E
:101D1000C0F30220704700000CED00E010B5002871
:101D200007DA0A07140E054A00F00F031B1FD454EC
:101D300003E00A07130E024A135410BD18ED00E029
:101D400000E400E07047000008B508490968C908C8
:101D50004FF47A72B1FBF2F14143009100BF00BF32
:101D600000994A1E00920029F9D108BD20000020E8
:101D7000F8B504460D4616462B4600228021204623
:101D8000009600F009F828B1606D40F02000606511
:101D90000320F8BD0020FCE72DE9F04104460E4683
:101DA00017461D46DDF818803FE0681CE0B32DB1F2
:101DB000FEF70AFCA0EB0800A84236D32068406872
:101DC00020F0E000216848606068B0F5827F0DD1A6
:101DD000A068B0F5004F03D0A068B0F5806F05D1C2
:101DE0002068006820F0400021680860A06AB0F513
:101DF000005F0ED100BF206800684DF6FF710840FB
:101E0000216808602068006840F40050216808607C
:101E100000BF012084F8510000BF002084F850006A
:101E200000BF0320BDE8F081FFE7206880683040F4
:101E3000B04201D1012000E00020B842B5D100201D
:101E4000F0E7704710B5FEF7C5FBFFF7A4FA10BD29
:101E500010B590B00220069001200A9010200B903F
:101E600000200D9006A8FEF7F1FD18B1FC2113A08B
:101E700000F0F8F90F2001900020029003900490E8
:101E80000590002101A8FEF79FFC20B14FF4857159
:101E90000AA000F0E7F9FEF769FD4FF47A71B0FB94
:101EA000F1F42046FFF75DFA0420FFF745FA00221F
:101EB0001146501EFEF735FC10B010BD2E2E2F53CC
:101EC00072632F6D61696E2E630000001148006817
:101ED00040F001000F490860084640680E4908407C
:101EE0000C494860084600680C49084009490860E8
:101EF0000846006820F4802008600846406820F406
:101F0000FE0048604FF41F008860C8030449086061
:101F100070470000001002400000FFF8FFFFF6FECF
:101F200008ED00E070B505466C6A0020E085E084AD
:101F30002046FFF734FA70BD0168C96821F490713A
:101F40000268D1600168496921F0010102685161AC
:101F5000202180F83A10704710B504462068C06808
:101F600020F040002168C860202084F83900204615
:101F7000FFF731FB002010BD70B5044694F83A001D
:101F800022284AD1A068B0F5805F13D1A56A2069E4
:101F900040B920684068C0F308002880A06A801C0F
:101FA000A06219E020684068C0B22880A06A401C86
:101FB000A06211E0206938B920684068C1B2A26A05
:101FC000501CA062117007E02068406800F07F019B
:101FD000A26A501CA0621170E08D401E80B2E085A4
:101FE000C8B92068C06820F020002168C860206857
:101FF000C06820F480702168C8602068406920F0C3
:10200000010021684861202084F83A002046FFF74B
:10201000E1FA002070BD0020FCE70220FAE7000092
:102020002DE9F041044600252068006920F4405065
:10203000E1680843216808612169A0680843616973
:10204000084305432068C06841F20C618843284377
:102050002168C8602068406920F44070A169084385
:10206000216848615F49206888425CD1FEF794FC92
:1020700000EBC00101EB001061688900B0FBF1F6D4
:10208000FEF78AFC00EBC00101EB001061688900DB
:10209000B0FBF1F06421B0FBF1F000EBC00101EB0B
:1020A0000010A6EB8000322101EB00106421B0FB90
:1020B000F1F000F0F006FEF76FFC00EBC00101EB61
:1020C000001061688900B0FBF1F06421B0FBF1F011
:1020D00006EB0016FEF760FC00EBC00101EB001000
:1020E00061688900B0FBF1F7FEF756FC00EBC00118
:1020F00001EB001061688900B0FBF1F06421B0FBD6
:10210000F1F000EBC00101EB0010A7EB80003221E1
:1021100001EB00106421B0FBF1F000F00F0030443F
:10212000216888605BE0FEF727FC00EBC00101EB53
:10213000001061688900B0FBF1F6FEF71DFC00EBB2
:10214000C00101EB001061688900B0FBF1F064216F
:10215000B0FBF1F000EBC00101EB0010A6EB80003A
:10216000322101EB00106421B0FBF1F000F0F00629
:10217000FEF702FC00EBC00101EB00106168890072
:10218000B0FBF1F06421B0FBF1F006EB0016FEF7B6
:10219000F3FB00EBC00101EB001061688900B0FBAC
:1021A000F1F7FEF7E9FB00EBC00101EB00106168FD
:1021B0008900B0FBF1F06421B0FBF1F000EBC0014D
:1021C00001EB0010A7EB8000322101EB001064212D
:1021D000B0FBF1F000F00F00304421688860BDE8EA
:1021E000F081000000380140014691F839002128B3
:1021F0002CD18868B0F5805F0FD10A6A1088C0F3CF
:1022000008000B685860086918B9086A801C0862E1
:1022100009E0086A401C086205E00B6A581C086265
:1022200018780B685860C88C401E80B2C88458B9B2
:102230000868C06820F080000B68D8600868C06833
:1022400040F040000B68D860002070470220FCE797
:1022500010B50248FFF7A4F810BD0000D40000201C
:1022600000BFFEE700BFFEE70FB47CB50C0009AD70
:1022700001D0611E00E00021CDE90001064B6A4655
:102280002946089800F01AF8002C02D0009A002184
:1022900011707CBC5DF814FB1124000802E008C832
:1022A000121F08C1002AFAD170477047002001E0D0
:1022B00001C1121F002AFBD1704700002DE9FF4F1A
:1022C00089B09B460446002506E025280BD05A46D7
:1022D0000B999047641C6D1C20780028F5D10DB037
:1022E0002846BDE8F08F0027B8460122474900E0A4
:1022F000074314F8013F203B02FA03F00842F7D1EC
:1023000020782E2819D114F8010F47F004072A2845
:102310000ED06FF02F022078A0F1300109290CD8DF
:1023200008EB880102EB410100EB0108641CF2E7B5
:102330000A98641C50F8048B0A9020780028CED0AC
:10234000642808D0692806D075281ED05A460B99F3
:1023500090476D1C58E00A994FF00A0901C90A918B
:10236000002802DA40422D2102E0390504D52B2154
:102370008DF82010012103E0F90704D02021F7E7B0
:102380008A4608AE0DE00021FAE70A994FF00A09E3
:1023900001C90A91F7E74946FDF7EAFE303106F830
:1023A000011D0028F7D1ADEB060000F120097807E8
:1023B00001D44FF00108C84502DDA8EB090000E098
:1023C00000208046002706E008A85A46C05D0B9909
:1023D00090476D1C7F1C5745F6DB04E030205A46C1
:1023E0000B9990476D1CB8F10001A8F10108F5DCCC
:1023F00005E016F8010B5A460B9990476D1CB9F190
:102400000001A9F10109F4DC641C65E70928010059
:102410004A68002A06D00A68531C0B60107048688E
:10242000401E48607047000010B5002821D0114BB5
:102430000022001F196803E0814203D80A46496858
:102440000029F9D152B11368841A9C4204D1006862
:1024500018441060104602E0506000E0186039B186
:1024600002680B1A934203D10B681A440260496850
:10247000416010BD24000020D8B0FEF7B7F8FFF788
:10248000E7FCFFF7ABF8FFF72BF9FFF7FDF864481F
:102490004C900820ADF8340161484E9010214CA8B2
:1024A00081810020569000214CA881855C48549081
:1024B00040214CA881845A48529080214CA88183A5
:1024C0005748509020214CA8818250251F262C224D
:1024D0004DA96846FDF728FE524A314628464C9BD6
:1024E000FFF7A8F903210120FFF700FB0021FF20DF
:1024F000FFF7A6FA0220FFF7E3FAFFF7BFFB4A490E
:102500000120FFF713FA0120FDF7B6FEFFF7A0FB4D
:102510000120FDF7B1FE002700BF002043490870ED
:10252000487088701C214148C01CFDF716FE00242D
:10253000012251033E48FEF741F83220FDF79CFE90
:1025400000224FF400513A48FEF738F83220FDF7E8
:1025500093FE012251033648FEF730F83220FDF792
:102560008BFE00224FF400513148FEF727F832204D
:10257000FDF782FE52E0FEF727F8C01BB0F5FA6FB8
:102580000BD9022C09DA4FF480710CA8FDF7E5FD98
:10259000601CC4B20120FDF76FFE4FF4FA70FDF726
:1025A0006BFE0020FFF7C5F8002832D04FF000087E
:1025B00006E01E48FFF7EAF98046FEF705F80746F1
:1025C000B8F1000FF5D04FF480710CA8FDF7C5FDF0
:1025D0001648807815494978CDE9001013480378EA
:1025E00014A24FF480710CA8FFF73EFE01225103A4
:1025F0000F48FDF7E3FF3220FDF73EFE00224FF4C7
:1026000000510B48FDF7DAFF3220FDF735FE0024BC
:1026100000BF012251030648FDF7D0FFABE70000E1
:10262000000801407C0000200D0000205C0000201C
:1026300000100140783A2025642C20793A20256446
:102640002C207A3A202564200A000000F0B50B30D7
:10265000154D20F007010024144A0FE003688B4257
:102660000BD38B4205D95E1A43184768C3E900674C
:1026700000E04368136002C004E0021D10680028F7
:10268000ECD12046002802D1286808B10020F0BD16
:10269000064A07481060074A121A22F00702C0E9EA
:1026A000002401202860D7E7280000202400002013
:1026B0001C010020180300200000000000000000A2
:1026C00001020304060708090000000001020304D8
:1026D000F0260008000000202C0000009C220008CA
:1026E0001C2700082C000020EC0A0000AC22000887
:1026F00000000000000000000000000000E7E6E528
:10270000E4E30000000000001000000001000000F1
:0C27100000A24A040000000000000000CD
:04000005080000ED02
:00000001FF
